:0400000080312E28F5
:100008007E1480310B1F09280A282C282100111E74
:100018000E280F281B282000111E132814281B281F
:10002800210045088A0044080A0080312C28210054
:10003800911E1F2820282C282000911E24282528BE
:100048002C28210043088A0042080A0080312C2805
:100058007E10090080313028FC012000EB01EC0102
:10006800ED01EE01EF01A03084000030850048303A
:100078008531242580317E1020008231332A2000EA
:10008800BB0021003B08803A2000B80080303802CD
:10009800031D5128013021003A020318542855281D
:1000A8005B2801302000BC000030BD00632821001F
:1000B8003B082000BD0021003A082000BC002100B8
:1000C80039082000BA00210038082000B90030089B
:1000D800BE003108BF003208C0003308C100340830
:1000E800C2003508C3003608C4003708C5001F30F1
:1000F800C6000030C7002100E701E028FF302000DB
:10010800C607FF30C73D4608C83E860087010A304B
:10011800A000A101A201A301A401A501A601A701B4
:100128003E08A8003F08A9004008AA004108AB0003
:100138004208AC004308AD004408AE004508AF00D3
:100148008231AA22803120002008303E8100FF3011
:10015800BC07FF30BD3DFF30B907FF30BA3D0A305C
:10016800A000A101A201A301A401A501A601A70164
:100178003E08A8003F08A9004008AA004108AB00B3
:100188004208AC004308AD004408AE004508AF0083
:100198008131AF21803120002008BE002108BF0036
:1001A8002208C0002308C1002408C2002508C30093
:1001B8002608C4002708C50020004608470403197C
:1001C800E628E72800293E083F0440044104420489
:1001D800430444044504031DF228F32882283D08FB
:1001E800803AB80080303802031DFC2801303C02F8
:1001F8000318FF280029822820004608C83EA700C7
:100208003A08A9003908A8003B0884310A2480313B
:1002180008002000D600480886008701403FCA0031
:10022800413FCB004A0884004B0885001200253A5C
:10023800031D1F29202996294808860087010130B7
:10024800810741310318810A2100B801B90103105F
:10025800003003180130C600FF30BA00FF30BB0081
:100268002000480886008701403FD700413FD8005A
:1002780057088400580885001200753A031D45295F
:1002880046298C29490886008701010884008501D0
:1002980002308107003FCE00013FCF00D001D101DD
:1002A800D201D301D401D5015708013ECA0000305C
:1002B800583DCB004808860087014A08C03F4B08D4
:1002C800C13F7B294E08B0004F08B1005008B2006A
:1002D8005108B3005208B4005308B5005408B600DA
:1002E8005508B7005608803143208131AE29570898
:1002F8008400580885000008CA00CB014B08003A62
:10030800031987298C294A08753A031966298C2903
:100318002000480886008701013081074131031811
:10032800810AAE29480886008701403FCA00413F3C
:10033800CB004A0884004B0885000008CC00CD019A
:100348004C08F4004D08F5005608F60083311B23CD
:1003580081318C290800723086000030870008300F
:10036800F10000301E00F10BB629200020082104FE
:100378002204230424042504260427040319C52978
:10038800C629222AFA01FA0AD529A035A10DA20DFB
:10039800A30DA40DA50DA60DA70D0130F100710840
:1003A800FA07A71FD829D929C929F235F30DF40D61
:1003B800F50DF60DF70DF80DF90D27082F02031DA1
:1003C800FF2926082E02031DFF2925082D02031DDB
:1003D800FF2924082C02031DFF2923082B02031DD3
:1003E800FF2922082A02031DFF2921082902031DCB
:1003F800FF2920082802031C022A032A142A20089D
:10040800A8022108A93B2208AA3B2308AB3B2408E1
:10041800AC3B2508AD3B2608AE3B2708AF3B721422
:10042800A736A60CA50CA40CA30CA20CA10CA00C1E
:100438000130FA02031D212A222AD9297208A000B4
:100448007308A1007408A2007508A3007608A40028
:100458007708A5007808A6007908A7000800C0302A
:100468002000E9005D30EA000130E7000030E800D4
:100478008431FA2482318B170B1722000D111530A5
:100488002000E6004B30E500BE30890B492AE50B19
:10049800492AE60B492A0000C030F1005D30F2001D
:1004A80085314E2582318531652582318F30200096
:1004B8006A025D3003196902031C632A642A692AE7
:1004C8000130E7000030E800742A2B306A02C0309F
:1004D800031969020318712A722A742AE701E801CC
:1004E80067036804031D792A7A2A7E2A0130E90203
:1004F8000030EA3B67086804031D832A842A882A97
:100508000130E9070030EA3D6A08F2006908F100A5
:1005180085314E2582318531652582315430200060
:10052800E0008530E1006A08E3006908E2008531EF
:100538000A2582310B302000E5006230890BA22A9F
:10054800E50BA22A00005A2A80312E282000200814
:10055800210422042304240425042604270403195F
:10056800B62AB72A0A2BF201F20AC62AA035A10D2B
:10057800A20DA30DA40DA50DA60DA70D0130F10028
:100588007108F207A71FC92ACA2ABA2A27082F0200
:10059800031DE82A26082E02031DE82A25082D0235
:1005A800031DE82A24082C02031DE82A23082B022D
:1005B800031DE82A22082A02031DE82A2108290225
:1005C800031DE82A20082802031CEB2AEC2AFC2A2F
:1005D8002008A8022108A93B2208AA3B2308AB3B14
:1005E8002408AC3B2508AD3B2608AE3B2708AF3BAB
:1005F800A736A60CA50CA40CA30CA20CA10CA00C4D
:100608000130F202031D092B0A2BCA2A2808A00070
:100618002908A1002A08A2002B08A3002C08A4007E
:100628002D08A5002E08A6002F08A70008007608A8
:1006380003191F2B202B252B7608031D242B252B74
:100648002A2B740885312A2583315B2B7608083ECE
:1006580086008701160001040319332B342B522B13
:100668007608083E86008701403FF700413FF800C2
:100678007608023E86008701403FF900413FFA00B4
:100688007A08803AFB007808803A7B02031D4E2BDB
:10069800770879020318512B522B5B2B7608023E00
:1006A800860087010130810741310318810A08005B
:1006B800210091129A30F1000330F200853136257D
:1006C8008331210011128B30F1000430F2008531A2
:1006D80030258331083023009F0090309D0024305E
:1006E8009E0044309B009C016830F1000530F20008
:1006F8008531422583315D30F1000530F2008531C6
:100708003C2583316130F1000530F2008531482500
:1007180083312100C7012000EF01EE010830ED0010
:10072800FC01EC01EB012100911608007C08A03EB9
:1007380086008701810123001D1DA32BA42BAF2B4D
:100748007C08A03E860087018114210041088A00A8
:1007580040080A00833123009D1CB32BB42BBF2B08
:100768007C08A03E86008701011521003F088A0009
:100778003E080A0083317C08A03E860087010108F4
:100788000319C72BC82BCF2B21003D088A003C0832
:100798000A008331D22B8431E224833108002200FD
:1007A8008C018D018E01083021009000FF308C00F3
:1007B800FB308D00EF308E004C3023008E003B3034
:1007C8008D003F308C00240090018D018C01803019
:1007D8008E002100971325008C018D018E01FF30BA
:1007E80026008C00FF308D00FF308E003F30270040
:1007F8008C00F0308D00FF308E0015303C00BD00BD
:100808001F303D009A002430A40008002000AF00EB
:10081800A91B0F2C102C152C2908AE002808AD0098
:10082800172CAD01AE01AB01AC01292C2030F4002E
:100838000030F50020002F08F60083311B23843197
:1008480001302000AB070030AC3D2C08803AAA00EC
:100858002E08803A2A02031D332C2D082B02031C74
:10086800362C372C1A2C20002F08A000270884319A
:10087800672484310800F20020006D080319452C14
:10088800462C402C2100111A4A2C4B2C4F2C720854
:1008980023009A00642C111220006F08B03E8600D5
:1008A8008701720881000130F1007108EF070830F4
:1008B8006F02031C602C612C622CEF010130ED02E9
:1008C8002100111608002000A300A501A6017D2C17
:1008D8002408A100A2012108F4002208F50020083C
:1008E800F60083311B23843101302000A507003036
:1008F800A63D25082307A1002108860087010108D5
:10090800A4002408031D892C8A2C6C2C08000830AC
:1009180020006D020318912C922CAA2C6E08B03E70
:1009280086008701010823009A000130F000700852
:100938002000EE0708306E02031CA32CA42CA52C63
:10094800EE010130F0007008ED07AC2C2100111207
:1009580008002000DD005A08DF005908DE00BC2C22
:100968005E30C8005B08C9005D0881310D21843103
:1009780020005E0884005F0885001200031DC52C56
:10098800C62CB42CD901DA0108003B00BC01BD011A
:100998001030BE00BF01C001B201B1012C30B4005B
:1009A8009030B3008F30B600C030B500B8011F30AA
:1009B800B700BA01B9018030BB0008007C08A83E26
:1009C800860087012300190881000130F0007008B3
:1009D800FC0708307C02031CF22CF32CF42CFC01DD
:1009E8000130F00070082000EB0708008331D323A2
:1009F80084318531182584318531592584318431F4
:100A0800C924843183315C2384310800623020009A
:100A1800E4006108DA006008D9006430DB000030C7
:100A28008431AD2485310800703021009B0080306E
:100A38009C009A019D011C1F222D232D1F2D0800AB
:100A4800640080010131890B252D0034F3007308FF
:100A580084313F248531080072082100C5007108DF
:100A6800C400080072082100C3007108C200080011
:100A780072082100BF007108BE000800720821003A
:100A8800C1007108C000080072082100BD0071088B
:100A9800BC00080072083B00B4007108B3000800ED
:100AA8000D34253475340A34003416302100990089
:100AB800080023001D121D1608008431E224853128
:0A0AC80008003B00BF1708000800FB
:020000040001F9
:08000000FF3FFF3FFF3FFF3F00
:04000E00E43FFF1FAD
:00000001FF
